:020000040800F2
:10C100000000022051D100085DCE000865CE000875
:10C110006DCE000875CE00087DCE0008000000003E
:10C1200000000000000000000000000085CE0008B4
:10C1300093CE000800000000A1CE0008AFCE00089A
:10C14000A1D10008A1D10008A1D10008A1D1000807
:10C15000A1D10008A1D10008BBCE0008A1D10008E0
:10C16000A1D10008A1D10008A1D10008A1D10008E7
:10C17000A1D10008A1D10008A1D10008A1D10008D7
:10C18000A1D10008A1D10008A1D10008A1D10008C7
:10C19000A1D10008A1D10008A1D10008A1D10008B7
:10C1A000A1D10008A1D10008A1D10008A1D10008A7
:10C1B000A1D10008A1D10008A1D10008A1D1000897
:10C1C000A1D10008A1D10008A1D10008A1D1000887
:10C1D000A1D10008A1D10008A1D10008A1D1000877
:10C1E000A1D10008A1D10008A1D10008A1D1000867
:10C1F000A1D10008A1D10008A1D10008A1D1000857
:10C20000A1D10008A1D10008A1D10008A1D1000846
:10C21000A1D10008A1D10008A1D10008A1D1000836
:10C22000A1D10008A1D10008A1D10008A1D1000826
:10C23000A1D10008A1D10008A1D10008A1D1000816
:10C24000A1D10008A1D10008A1D10008A1D1000806
:10C25000A1D10008A1D10008A1D10008A1D10008F6
:10C26000A1D10008A1D10008A1D10008A1D10008E6
:10C27000A1D10008A1D10008A1D100080000000050
:08C28000C9CE0008A1D100089D
:10C2880010B5054C237833B9044B13B10448AFF308
:10C2980000800123237010BD68000020000000000A
:10C2A8002004010808B5034B1BB103490348AFF349
:10C2B800008008BD000000006C0000202004010878
:10C2C80053B94AB9002908BF00281CBF4FF0FF31F5
:10C2D8004FF0FF3000F088B9ADF1080C6DE904CEDD
:10C2E80000F006F8DDF804E0DDE9022304B0704749
:10C2F8002DE9F047089D8E4604468846002B4AD112
:10C308008A42174662D9B2FA82F64EB1C6F12003C4
:10C3180001FA06F820FA03F3B74043EA0808B440E4
:10C328004FEA174E1FFA87FCB8FBFEF1230C0EFBF1
:10C33800118843EA084301FB0CF29A4209D9FB1819
:10C3480001F1FF3080F0EA809A4240F2E78002393A
:10C358003B449A1AA3B2B2FBFEF00EFB102243EA4A
:10C36800024300FB0CFC9C4509D9FB1800F1FF3285
:10C3780080F0D6809C4540F2D3803B44023840EAA6
:10C388000140A3EB0C0300211DB1F3400022C5E9D5
:10C398000032BDE8F0878B4205D90DB1C5E900012F
:10C3A80000210846F5E7B3FA83F1002946D1734521
:10C3B80002D3824200F20581841A6EEB0302012047
:10C3C8009046002DE5D0C5E90048E2E7002A00F0D4
:10C3D8009080B2FA82F6002E40F0A4808A1A030CEC
:10C3E8004FEA174E80B2BCB20121B2FBFEFC0EFB35
:10C3F8001C2243EA024304FB0CF29A4207D9FB18B9
:10C408000CF1FF3802D29A4200F2E080C4469B1A2F
:10C41800B3FBFEF20EFB123340EA034302FB04F4C3
:10C428009C4207D9FB1802F1FF3002D29C4200F26D
:10C43800CA8002461B1B42EA0C40A5E7C1F1200650
:10C448008B4022FA06F71F430EFA01F420FA06F38E
:10C458002EFA06FE4FEA1749234300FA01F81FFA9D
:10C4680087FCBEFBF9F01C0C09FB10EE44EA0E44F5
:10C4780000FB0CFEA64502FA01F209D93C1900F1AD
:10C48800FF3A80F09C80A64540F2998002383C44EF
:10C49800A4EB0E041FFA83FEB4FBF9F309FB134463
:10C4A8004EEA044403FB0CFCA44508D93C1903F1EB
:10C4B800FF3E80F08280A4457FD9023B3C4443EA9A
:10C4C8000040A4EB0C04A0FB02EC64457346E14673
:10C4D80062D35FD05DB1B8EB030264EB090404FAE0
:10C4E80006F622FA01F31E43CC40C5E90064002198
:10C4F8004FE7B1FBF2FC010C41EA0E4180B240EA81
:10C5080001423B4638463C46B846BE462026B1FB6B
:10C51800F7F1A2EB080241EA0C4166E7014618E789
:10C5280010462CE7C6F120022EFA02F3B740B140BC
:10C5380020FA02F24FEA174E0A43B3FBFEF8BCB2E8
:10C548000EFB1833110C41EA034108FB04F9B04013
:10C5580089454FEA104380B23ED9791808F1FF3C6B
:10C5680001D289451FD8A1EB0901B1FBFEF909FBEE
:10C5780004F80EFB191192B242EA0142424529D24F
:10C58800BA1809F1FF31C4D24245C2D2A9F1020159
:10C598003A44BEE7F0459DD2BEEB02036CEB070CB4
:10C5A8000138E14696E7A7EB09094944A8F1020CCE
:10C5B800B1FBFEF909FB04F8DBE773467FE7504659
:10C5C80066E70846FDE63B44023A33E7ACF1020C65
:10C5D8003B441CE749469CE7A1EB0901C446B1FB73
:10C5E800FEF909FB04F8C4E7704700BF80B500AF47
:10C5F800064B074A1A60054800F077FF0346002BF0
:10C6080001D000F03FFB00BF80BD00BF84000020C8
:10C618000030024080B485B000AF78607B681B684A
:10C628000B4A93420DD10023FB600A4B1B6B094A4E
:10C6380043F480531363074B1B6B03F48053FB6075
:10C64800FB6800BF1437BD465DF8047B704700BF28
:10C65800003002400038024080B58CB000AF07F1CE
:10C668001C0300221A605A609A60DA601A6100237B
:10C67800BB61854B1B6B844A43F010031363824BE9
:10C688001B6B03F01003BB61BB6900237B617E4B0E
:10C698001B6B7D4A43F0040313637B4B1B6B03F056
:10C6A80004037B617B6900233B61774B1B6B764AF4
:10C6B80043F080031363744B1B6B03F080033B61EF
:10C6C8003B690023FB60704B1B6B6F4A43F001030F
:10C6D80013636D4B1B6B03F00103FB60FB680023C6
:10C6E800BB60694B1B6B684A43F002031363664BDC
:10C6F8001B6B03F00203BB60BB6800237B60624BCB
:10C708001B6B614A43F0080313635F4B1B6B03F019
:10C7180008037B607B68002208215C4801F09EF8D2
:10C72800012201215A4801F099F800224FF2100124
:10C73800584801F093F80823FB6101233B6200236A
:10C748007B620023BB6207F11C0319464F4800F0C7
:10C75800E9FE0123FB6101233B6200237B62002386
:10C76800BB6207F11C031946494800F0DBFE0823A9
:10C77800FB6102233B6200237B620023BB6205232B
:10C78800FB6207F11C031946414800F0CBFE012368
:10C79800FB614FF488133B6200237B6207F11C03A3
:10C7A80019463D4800F0BEFE0423FB6100233B62AE
:10C7B80000237B6207F11C031946384800F0B2FEDB
:10C7C8004FF48063FB6102233B6200237B620023FA
:10C7D800BB620523FB6207F11C0319462F4800F0D2
:10C7E800A1FE4FF21003FB6101233B6200237B6231
:10C7F8000023BB6207F11C031946264800F092FE8D
:10C808004FF40073FB6100233B6200237B6207F156
:10C818001C031946204800F085FE4FF4E053FB61E5
:10C8280002233B6200237B620023BB620A23FB6274
:10C8380007F11C031946184800F074FE2023FB6119
:10C8480000233B6200237B6207F11C031946114851
:10C8580000F068FE0223FB614FF490133B62002353
:10C868007B6207F11C031946084800F05BFE0022B2
:10C878000021062000F003FE062000F01CFE00BF89
:10C888003037BD4680BD00BF00380240001002406E
:10C8980000080240000C0240000002400004024070
:10C8A80080B500AF124B134A1A60114B124A5A60F6
:10C8B8000F4B00229A600E4B0022DA600C4B4FF4AB
:10C8C80080421A610A4B00225A61094B00229A6180
:10C8D800074B0022DA61064B00221A62044801F075
:10C8E80009F80346002B01D000F0CCF900BF80BD49
:10C8F8008C00002000540040A086010080B58AB05A
:10C9080000AF786007F1140300221A605A609A6039
:10C91800DA601A617B681B68194A93422CD100239C
:10C928003B61184B1B6B174A43F002031363154B0B
:10C938001B6B03F002033B613B694FF410737B618F
:10C948001223BB610123FB6100233B6204237B624A
:10C9580007F1140319460C4800F0E4FD0023FB60BE
:10C96800084B1B6C074A43F400131364054B1B6CFC
:10C9780003F40013FB60FB6800BF2837BD4680BD89
:10C9880000540040003802400004024080B500AF67
:10C99800134B144A1A60124B4FF400725A60104B32
:10C9A80000229A600E4B0022DA600D4B4FF40072A1
:10C9B8001A610B4B0C4A5A61094B00229A61084BC9
:10C9C8000022DA61064B00221A62054801F0D6F807
:10C9D8000346002B01D000F055F900BF80BD00BF11
:10C9E800E0000020003C00400077010080B58EB0D8
:10C9F80000AF786007F1240300221A605A609A6039
:10CA0800DA601A6107F1140300221A605A609A600A
:10CA1800DA607B681B68314A93425AD101237B61F3
:10CA2800C023BB610223FB6107F11403184602F01F
:10CA3800DDF90346002B01D000F024F900233B6107
:10CA4800274B1B6C264A43F400431364244B1B6C8E
:10CA580003F400433B613B690023FB60204B1B6BE5
:10CA68001F4A43F0010313631D4B1B6B03F00103C3
:10CA7800FB60FB680023BB60194B1B6B184A43F033
:10CA880004031363164B1B6B03F00403BB60BB6802
:10CA980010237B620223BB620023FB6200233B63FB
:10CAA80006237B6307F1240319460E4800F03AFD7C
:10CAB8004FF4A4537B620223BB620023FB62002372
:10CAC8003B6306237B6307F124031946064800F0FD
:10CAD80029FD00BF3837BD4680BD00BF003C00407F
:10CAE80000380240000002400008024080B400AF55
:10CAF800BFF34F8F00BF064BDB6803F4E0620449C5
:10CB0800044B1343CB60BFF34F8F00BF00BFFDE75B
:10CB180000ED00E00400FA0580B582B000AF00F037
:10CB28003DFB00F035F8EFF310837B607B68012B49
:10CB380001D162B600BFFFF78FFDFFF7B1FEFFF727
:10CB480025FF00F0E1F8FFF751FD00F0A1F800F033
:10CB580089FA0B4803F0CCF84FF48051094800F0EB
:10CB680096FE094B1B68012B04D1084803F0C0F856
:10CB7800FFF7BCFF4FF47A7000F082FBECE700BFD0
:10CB880038040108000C024028010020580401085C
:10CB980080B594B000AF07F1200330220021184679
:10CBA80003F086F907F10C0300221A605A609A60B4
:10CBB800DA601A610023BB60284B1B6C274A43F0DC
:10CBC80080531364254B1B6C03F08053BB60BB6818
:10CBD80000237B60224B1B68214A43F48043136087
:10CBE8001F4B1B6803F480437B607B6801233B6217
:10CBF8004FF480337B620223BB634FF48003FB63F3
:10CC080008233B644FF4A8737B640223BB640723A7
:10CC1800FB6407F12003184601F050FC0346002B83
:10CC280001D000F02FF80F23FB6002233B610023A3
:10CC38007B614FF4A053BB614FF48053FB6107F154
:10CC48000C030521184601F0B1FE0346002B01D064
:10CC580000F018F800BF5037BD4680BD00380240CC
:10CC68000070004080B483B000AF0346FB80044BE3
:10CC780001221A6000BF0C37BD465DF8047B70477F
:10CC88002801002080B400AF72B600BF00BFFDE7E6
:10CC980080B500AF064B074A1A60054802F0E8F96C
:10CCA8000346002B01D0FFF7EDFF00BF80BD00BF9A
:10CCB8002C0100200008065080B584B000AF7860D1
:10CCC8007B681B680E4A934215D10023FB600D4B0D
:10CCD8005B6B0C4A43F0400353630A4B5B6B03F0F6
:10CCE8004003FB60FB6800220021502000F0C7FBD6
:10CCF800502000F0E0FB00BF1037BD4680BD00BFEC
:10CD0800000806500038024080B500AF174B184A9B
:10CD18001A60164B4FF482725A60144B00229A60C4
:10CD2800124B0022DA60114B00221A610F4B0022CD
:10CD38005A610E4B4FF400729A610C4B0022DA6173
:10CD48000A4B00221A62094B00225A62074B002242
:10CD58009A62064B0A22DA62044802F01CFA034679
:10CD6800002B01D0FFF78EFF00BF80BD3C010020E3
:10CD78000030014080B58AB000AF786007F1140335
:10CD880000221A605A609A60DA601A617B681B6830
:10CD9800194A93422BD100233B61184B5B6C174A0D
:10CDA80043F480535364154B5B6C03F480533B612D
:10CDB8003B690023FB60114B1B6B104A43F00103D6
:10CDC80013630E4B1B6B03F00103FB60FB68E0234E
:10CDD8007B610223BB610023FB6100233B620523C7
:10CDE8007B6207F114031946054800F09BFB00BF5E
:10CDF8002837BD4680BD00BF0030014000380240E2
:10CE08000000024080B582B000AF00237B60104B69
:10CE18005B6C0F4A43F4804353640D4B5B6C03F423
:10CE280080437B607B6800233B60094B1B6C084A8E
:10CE380043F080531364064B1B6C03F080533B6034
:10CE48003B68072000F010FB00BF0837BD4680BDD7
:10CE58000038024080B400AF00BFFDE780B400AFE7
:10CE680000BFFDE780B400AF00BFFDE780B400AFAE
:10CE780000BFFDE780B400AF00BFFDE780B400AF9E
:10CE880000BFBD465DF8047B704780B400AF00BFAB
:10CE9800BD465DF8047B704780B400AF00BFBD4657
:10CEA8005DF8047B704780B500AF00F0C9F900BF9A
:10CEB80080BD80B500AF012000F004FD00BF80BD3B
:10CEC80080B500AF024802F0FDF800BF80BD00BF8A
:10CED8002C01002080B582B000AF7860391D0A238C
:10CEE8000122044802F030FA012318460837BD46EB
:10CEF80080BD00BF9801002080B586B000AFF86003
:10CF0800B9607A6000237B610AE0AFF300800146D4
:10CF1800BB685A1CBA60CAB21A707B6901337B615C
:10CF28007A697B689A42F0DB7B6818461837BD46F9
:10CF380080BD80B586B000AFF860B9607A60002324
:10CF48007B6109E0BB685A1CBA601B781846FFF77A
:10CF5800C1FF7B6901337B617A697B689A42F1DBA7
:10CF68007B6818461837BD4680BD80B483B000AFD3
:10CF780078604FF0FF3318460C37BD465DF8047BE8
:10CF8800704780B483B000AF786039603B684FF475
:10CF980000525A60002318460C37BD465DF8047BE2
:10CFA800704780B483B000AF7860012318460C370F
:10CFB800BD465DF8047B704780B485B000AFF8606B
:10CFC800B9607A60002318461437BD465DF8047BC3
:10CFD8007047000080B586B000AF7860144A154BE2
:10CFE800D31A7B617B693B61134B1B68002B02D111
:10CFF800114B124A1A60104B1A687B6813443A693D
:10D008009A4207D202F0A2FF03460C221A604FF0A0
:10D01800FF3309E0084B1B68FB60074B1A687B6805
:10D028001344054A1360FB6818461837BD4680BD8F
:10D0380000000220000400009401002030030020BA
:10D0480080B400AF064BD3F88830054A43F4700328
:10D05800C2F8883000BFBD465DF8047B704700BF4A
:10D0680000ED00E080B500AF114B124A1A60104B7A
:10D078004FF4E1325A600E4B00229A600C4B0022AA
:10D08800DA600B4B00221A61094B0C225A61084BDB
:10D0980000229A61064B0022DA61054802F004F981
:10D0A8000346002B01D0FFF7EDFD00BF80BD00BF98
:10D0B800980100200044004080B58AB000AF786035
:10D0C80007F1140300221A605A609A60DA601A6144
:10D0D8007B681B68194A93422BD100233B61184B8C
:10D0E8001B6C174A43F400331364154B1B6C03F491
:10D0F80000333B613B690023FB60114B1B6B104AFB
:10D1080043F0010313630E4B1B6B03F00103FB6039
:10D11800FB680C237B610223BB610023FB610323B3
:10D128003B6207237B6207F114031946054800F0A8
:10D13800F9F900BF2837BD4680BD00BF0044004054
:10D148000038024000000240DFF834D0FFF778FFD3
:10D158000C480D490D4A002302E0D458C45004334A
:10D16800C4188C42F9D30A4A0A4C002301E0136020
:10D178000432A242FBD302F0EFFEFFF7CDFC70476A
:10D188000000022000000020680000209804010828
:10D198006800002030030020FEE7000080B500AFE3
:10D1A8000E4B1B680D4A43F4007313600B4B1B684E
:10D1B8000A4A43F480631360084B1B68074A43F428
:10D1C80080731360032000F04FF9002000F008F886
:10D1D800FFF718FE0023184680BD00BF003C024040
:10D1E80080B582B000AF7860124B1A68124B1B787A
:10D1F80019464FF47A73B3FBF1F3B2FBF3F3184615
:10D2080000F067F90346002B01D001230EE07B688C
:10D218000F2B0AD8002279684FF0FF3000F02FF961
:10D22800064A7B681360002300E00123184608378C
:10D23800BD4680BD0000002008000020040000203A
:10D2480080B400AF064B1B781A46064B1B68134484
:10D25800044A136000BFBD465DF8047B704700BFF9
:10D2680008000020E001002080B400AF034B1B68D9
:10D278001846BD465DF8047B704700BFE0010020FA
:10D2880080B584B000AF7860FFF7EEFFB8607B68C8
:10D29800FB60FB68B3F1FF3F05D00A4B1B781A46C9
:10D2A800FB681344FB6000BFFFF7DEFF0246BB6864
:10D2B800D31AFA689A42F7D800BF00BF1037BD46A4
:10D2C80080BD00BF0800002080B485B000AF786042
:10D2D8007B6803F00703FB600C4BDB68BB60BA6834
:10D2E8004FF6FF031340BB60FB681A02BB68134389
:10D2F80043F0BF6343F40033BB60044ABB68D360A8
:10D3080000BF1437BD465DF8047B704700ED00E0B0
:10D3180080B400AF044BDB681B0A03F00703184610
:10D32800BD465DF8047B704700ED00E080B483B033
:10D3380000AF0346FB7197F90730002B0BDBFB7935
:10D3480003F01F02074997F907305B09012000FA2B
:10D3580002F241F8232000BF0C37BD465DF8047B7C
:10D36800704700BF00E100E080B483B000AF03461F
:10D378003960FB7197F90730002B0ADB3B68DAB29A
:10D388000C4997F907301201D2B20B4483F80023F5
:10D398000AE03B68DAB20849FB7903F00F03043B63
:10D3A8001201D2B20B441A7600BF0C37BD465DF8A5
:10D3B800047B704700E100E000ED00E080B489B034
:10D3C80000AFF860B9607A60FB6803F00703FB619F
:10D3D800FB69C3F10703042B28BF0423BB61FB6966
:10D3E8000433062B02D9FB69033B00E000237B6171
:10D3F8004FF0FF32BB6902FA03F3DA43BB681A4005
:10D408007B699A404FF0FF317B6901FA03F3D943F6
:10D418007B680B40134318462437BD465DF8047BF0
:10D428007047000080B582B000AF78607B68013B30
:10D43800B3F1807F01D301230FE00A4A7B68013BE7
:10D4480053600F214FF0FF30FFF78EFF054B00228E
:10D458009A60044B07221A60002318460837BD4615
:10D4680080BD00BF10E000E080B582B000AF7860FA
:10D478007868FFF729FF00BF0837BD4680BD80B533
:10D4880086B000AF0346B9607A60FB7300237B6106
:10D49800FFF73EFF78617A68B9687869FFF78EFF11
:10D4A800024697F90F3011461846FFF75DFF00BF97
:10D4B8001837BD4680BD80B582B000AF0346FB710A
:10D4C80097F907301846FFF731FF00BF0837BD4608
:10D4D80080BD80B582B000AF78607868FFF7A2FFA2
:10D4E800034618460837BD4680BD80B582B000AFF8
:10D4F80078607B68002B01D101230EE07B685B79A3
:10D50800DBB2002B05D17B6800221A717868FFF71F
:10D5180081F87B6801225A71002318460837BD46F6
:10D5280080BD000080B489B000AF78603960002306
:10D538007B6100233B610023BB610023FB616BE13E
:10D548000122FB6902FA03F37B613B681B687A6975
:10D5580013403B613A697B699A4240F05A813B68C3
:10D568005B6803F00303012B05D03B685B6803F09D
:10D578000303022B30D17B689B68BB61FB695B00AE
:10D58800032202FA03F3DB43BA691340BB613B6829
:10D59800DA68FB695B0002FA03F3BA691343BB61FB
:10D5A8007B68BA699A607B685B68BB610122FB692A
:10D5B80002FA03F3DB43BA691340BB613B685B685B
:10D5C8001B0903F00102FB6902FA03F3BA6913436A
:10D5D800BB617B68BA695A603B685B6803F0030308
:10D5E800032B17D07B68DB68BB61FB695B000322F8
:10D5F80002FA03F3DB43BA691340BB613B689A68DC
:10D60800FB695B0002FA03F3BA691343BB617B68E9
:10D61800BA69DA603B685B6803F00303022B23D125
:10D62800FB69DA087B68083253F82230BB61FB6972
:10D6380003F007039B000F2202FA03F3DB43BA69E6
:10D648001340BB613B681A69FB6903F007039B0041
:10D6580002FA03F3BA691343BB61FB69DA087B6812
:10D668000832B96943F822107B681B68BB61FB6903
:10D678005B00032202FA03F3DB43BA691340BB6180
:10D688003B685B6803F00302FB695B0002FA03F383
:10D69800BA691343BB617B68BA691A603B685B6807
:10D6A80003F44033002B00F0B4800023FB60604B90
:10D6B8005B6C5F4A43F4804353645D4B5B6C03F4DB
:10D6C8008043FB60FB685B4AFB699B08023352F8A6
:10D6D8002330BB61FB6903F003039B000F2202FAAE
:10D6E80003F3DB43BA691340BB617B68524A934238
:10D6F8002BD07B68514A934225D07B68504A93428D
:10D708001FD07B684F4A934219D07B684E4A934298
:10D7180013D07B684D4A93420DD07B684C4A9342A4
:10D7280007D07B684B4A934201D107230EE00823B8
:10D738000CE006230AE0052308E0042306E003239F
:10D7480004E0022302E0012300E00023FA6902F06A
:10D75800030292009340BA691343BB613549FB69E0
:10D768009B080233BA6941F823203B4B9B68BB6195
:10D778003B69DB43BA691340BB613B685B6803F4F0
:10D788008013002B03D0BA693B691343BB61324A4B
:10D79800BB699360304BDB68BB613B69DB43BA69AB
:10D7A8001340BB613B685B6803F40013002B03D094
:10D7B800BA693B691343BB61274ABB69D360264BEF
:10D7C8005B68BB613B69DB43BA691340BB613B687B
:10D7D8005B6803F40033002B03D0BA693B69134339
:10D7E800BB611D4ABB6953601B4B1B68BB613B692E
:10D7F800DB43BA691340BB613B685B6803F4803361
:10D80800002B03D0BA693B691343BB61124ABB6959
:10D818001360FB690133FB61FB690F2B7FF690AE48
:10D8280000BF00BF2437BD465DF8047B704700BFCA
:10D838000038024000380140000002400004024065
:10D8480000080240000C0240001002400014024090
:10D8580000180240001C0240003C014080B483B024
:10D8680000AF78600B467B8013467B707B78002B7B
:10D8780003D07A887B689A6103E07B881A047B6806
:10D888009A6100BF0C37BD465DF8047B704780B4D1
:10D8980085B000AF78600B467B807B685B69FB6076
:10D8A8007A88FB6813401A04FB68D9437B880B40CD
:10D8B8001A437B689A6100BF1437BD465DF8047B44
:10D8C8007047000080B582B000AF0346FB80084B6C
:10D8D8005A69FB881340002B06D0054AFB88536120
:10D8E800FB881846FFF7BEF900BF0837BD4680BD64
:10D8F800003C014080B584B000AF78607B68002BA5
:10D9080001D101232BE17B6893F83D30DBB2002B7A
:10D9180006D17B68002283F83C207868FEF7EEFF8A
:10D928007B68242283F83D207B681B681A687B6823
:10D938001B6822F001021A607B681B681A687B6802
:10D948001B6842F400421A607B681B681A687B688F
:10D958001B6822F400421A6001F020FAF8607B6824
:10D968005B68814A934207D8FB68804A934294BF18
:10D9780001230023DBB206E0FB687D4A934294BF93
:10D9880001230023DBB2002B01D00123E7E0FB6871
:10D99800784AA2FB03239B0CBB607B681B685B680F
:10D9A80023F03F017B681B68BA680A435A607B68AA
:10D9B8001B681B6A23F03F017B685B686A4A9342D5
:10D9C80002D8BB68013309E0BB684FF4967202FBCA
:10D9D80003F3694AA2FB03239B0901337A6812689F
:10D9E8000B4313627B681B68DB6923F44F4222F008
:10D9F800FF027B685B685C498B4219D8FB68591E3B
:10DA08007B685B685B00B1FBF3F3591C40F6FC7361
:10DA18000B40002B0AD0FB68591E7B685B685B00D3
:10DA2800B1FBF3F30133C3F30B0351E004234FE0DD
:10DA38007B689B68002B11D1FB68581E7B6859686E
:10DA48000B465B000B44B0FBF3F30133C3F30B034A
:10DA5800002B0CBF01230023DBB212E0FB68581E29
:10DA68007B6859680B469B000B4499000B44B0FB3C
:10DA7800F3F30133C3F30B03002B0CBF0123002383
:10DA8800DBB2002B01D0012322E07B689B68002BCE
:10DA98000ED1FB68581E7B6859680B465B000B4427
:10DAA800B0FBF3F30133C3F30B0343F400430FE07C
:10DAB800FB68581E7B6859680B469B000B4499000D
:10DAC8000B44B0FBF3F30133C3F30B0343F44043BC
:10DAD800796809681343CB617B681B681B6823F06E
:10DAE800C0017B68DA697B681B6A1A437B681B681C
:10DAF8000A431A607B681B689B6823F4034323F07E
:10DB0800FF037A6811697A68D26811437A681268E3
:10DB18000B4393607B681B68DB6823F0FF017B681D
:10DB28005A697B689B691A437B681B680A43DA60F9
:10DB38007B681B681A687B681B6842F001021A60E0
:10DB48007B6800221A647B68202283F83D207B686A
:10DB580000221A637B68002283F83E2000231846BF
:10DB68001037BD4680BD00BFA08601007F841E001F
:10DB7800FF083D0083DE1B43D34D621080B588B09B
:10DB880000AF78607B68002B01D1012328E17B6816
:10DB980093F84130DBB2002B09D17B68002283F86F
:10DBA80040207B68904A5A637868FEF71FFF7B68BD
:10DBB800022283F841207B681B68DB697A68126857
:10DBC80023F47B6323F00F03D3617B681B68022275
:10DBD8001A627B685B69022B60D07B68DB68002B6C
:10DBE80002D110237B6101E020237B617B689B6865
:10DBF800202B02D87B695B007B61012001F0D8F9FA
:10DC0800F8607B681B69B3F5007F25D17B68DB680A
:10DC1800002B10D07B699B00FA68B2FBF3F2134625
:10DC28009B0013445B001A467B685B69B2FBF3F305
:10DC380005333B611FE07B69DB00FA68B2FBF3F256
:10DC480013469B0013445B001A467B685B69B2FB72
:10DC5800F3F305333B610EE0FA687B69B2FBF3F23C
:10DC680013469B0013445B001A467B685B69B2FB52
:10DC7800F3F305333B613B695C4AA2FB0323DB08F2
:10DC88003B613B6903F00103BB613A69BB69D31A85
:10DC98005B08FB61BB691B02BB6103E00223FB61FC
:10DCA8000023BB61FB69012B02D9FB69FF2B07D954
:10DCB8007B685B6C43F010027B685A6401238FE039
:10DCC8007B681A69BB6942EA03017B681B68FA69C9
:10DCD8000A431A627B681B68DB6923F47B6323F0C1
:10DCE8000F037A6851687A68926811437A68D26833
:10DCF80011437A6892690A431A437B681B6842F4A5
:10DD08000062DA617B681B6A012B61D17B68384A43
:10DD18005A637B681B68374A934201D1364B01E04E
:10DD28004FF04023DB697A68126832498A4201D190
:10DD3800314A01E04FF0402223F47B6323F00F03C4
:10DD4800D3617B681B682B4A934201D12A4B01E0BF
:10DD58004FF0402302221A627B681B68254A9342CF
:10DD680001D1254B01E04FF04023DB697B817B68C3
:10DD78005B68B3F5007F03D07B685B68002B03D139
:10DD88004FF480733B6101E000233B613B699AB229
:10DD98007B689B689BB213439AB27B68DB689BB233
:10DDA80013439AB27B689B699BB213439AB27B89EF
:10DDB80013439BB243F400637B817B681B680D4A65
:10DDC800934201D10C4B01E04FF040237A89DA618C
:10DDD8007B6800225A647B68012283F84120002373
:10DDE80018462037BD4680BDFBDE0008CDCCCCCC24
:10DDF80011E00008003800400034004080B483B0CF
:10DE080000AF786000BF0C37BD465DF8047B7047F3
:10DE180080B483B000AF786000BF0C37BD465DF8B2
:10DE2800047B704780B483B000AF786000BF0C37C4
:10DE3800BD465DF8047B704780B582B000AF78605E
:10DE48007B685B6A1A887B681B68DA607B685B6A38
:10DE58009A1C7B685A627B685B8D9BB2013B9AB2C5
:10DE68007B685A857B685B8D9BB2002B0ED17B68E3
:10DE78001B685A687B681B6822F0A0025A607B689E
:10DE8800012283F841207868FFF7B8FF00BF083700
:10DE9800BD4680BD80B582B000AF78607B681B68E6
:10DEA800DA687B68DB6A92B21A807B68DB6A9A1C44
:10DEB8007B68DA627B685B8E9BB2013B9AB27B68B7
:10DEC8005A867B685B8E9BB2002B0ED17B681B68E1
:10DED8005A687B681B6822F060025A607B680122DE
:10DEE80083F841207868FFF793FF00BF0837BD46E5
:10DEF80080BD80B586B000AF78607B681B689B6882
:10DF08007B617B6893F84130DBB2042B3AD17B69A3
:10DF180003F00103012B09D17B681B685B6803F0E0
:10DF28004003402B02D17868FFF7B4FF7B6903F008
:10DF38004003402B26D17B681B685B6803F02003F5
:10DF4800202B1FD17B681B685A687B681B6822F0EE
:10DF580060025A6000233B617B681B68DB683B6199
:10DF68007B681B689B683B613B697B68012283F87F
:10DF780041207B685B6C43F002027B685A647868D6
:10DF8800FFF750FF7B6893F84130DBB2032B36D1A3
:10DF98007B6903F00203022B09D17B681B685B686D
:10DFA80003F08003802B02D17868FFF745FF7B6977
:10DFB80003F00803082B22D17B681B685B6803F019
:10DFC8002003202B1BD17B681B685A687B681B6861
:10DFD80022F0A0025A600023FB607B681B689B68E4
:10DFE800FB60FB687B68012283F841207B685B6CDF
:10DFF80043F004027B685A647868FFF713FF00BF98
:10E008001837BD4680BD000080B588B000AF786085
:10E018007B681B689B68FB617B681B68924A93421C
:10E0280001D1924B01E04FF040239B68BB617B68B4
:10E038001B685B687B617B681B688B4A934201D1D4
:10E048008A4B01E04FF040235B683B617B685B686B
:10E05800B3F5007F04D07B685B68002B40F09980A3
:10E06800FB6903F00203022B07D17B6903F08003ED
:10E07800002B02D0786800F025F9BB6903F0010392
:10E08800012B07D13B6903F04003002B02D07868CD
:10E0980000F0C8F9BB6903F04003402B3AD13B6953
:10E0A80003F02003002B35D07B681B686E4A93422F
:10E0B80001D16E4B01E04FF040235A687B681B6822
:10E0C80069498B4201D1694B01E04FF0402322F0AE
:10E0D80060025A607B681B685A687B681B6822F07C
:10E0E800A0025A600023FB607B681B68DB68FB604A
:10E0F8007B681B689B68FB60FB687B68012283F870
:10E1080041207B685B6C43F002027B685A64786844
:10E11800FFF788FEFB6903F00803082B40F0C38073
:10E128007B6903F02003002B00F0BD807B681B682F
:10E138005A687B681B6822F0A0025A607B681B68DB
:10E14800494A934201D1494B01E04FF040235A68B4
:10E158007B681B6844498B4201D1444B01E04FF076
:10E16800402322F060025A600023BB607B681B6872
:10E178009B68BB60BB687B68012283F841207B6891
:10E188005B6C43F004027B685A647868FFF74AFEC8
:10E1980089E0BB6903F00203022B07D13B6903F056
:10E1A8008003002B02D0786800F0BEF8FB6903F00A
:10E1B8000103012B07D17B6903F04003002B02D038
:10E1C800786800F0FDF8FB6903F04003402B2FD17D
:10E1D8007B6903F02003002B2AD07B681B685A68F0
:10E1E8007B681B6822F060025A607B681B681E4AC5
:10E1F800934201D11D4B01E04FF040235A687B68E0
:10E208001B6819498B4201D1184B01E04FF040239C
:10E2180022F0A0025A607B68012283F841207B68C3
:10E228005B6C43F002027B685A647868FFF7FAFD7A
:10E23800BB6903F00803082B36D13B6903F02003C0
:10E24800002B31D07B681B68074A934201D1074BEA
:10E2580001E04FF040235A687B681B6802498B42F3
:10E2680006D1024B06E000BF0038004000340040F1
:10E278004FF0402322F0A0025A607B681B685A685E
:10E288007B681B6822F060025A607B68012283F871
:10E2980041207B685B6C43F004027B685A647868B1
:10E2A800FFF7C0FD00E000BF00BF2037BD4680BDBE
:10E2B80080B483B000AF786000BF0C37BD465DF80E
:10E2C800047B704780B582B000AF78607B685B6A7A
:10E2D800991C7A6851621A887B681B68DA607B68C7
:10E2E8005B8D9BB2013B9AB27B685A857B685B8DDC
:10E2F8009BB2002B13D17B681B685A687B681B682C
:10E3080022F0A0025A607B685B8E9BB2002B06D17C
:10E318007B68012283F841207868FFF7C9FF00BFB6
:10E328000837BD4680BD000080B582B000AF786078
:10E338007B685B6A991C7A68516219887B681B68DC
:10E348001D4A934201D11D4B01E04FF040230A467C
:10E35800DA607B685B8D9BB2013B9AB27B685A8519
:10E368007B685B8D9BB2002B21D17B681B68124AAE
:10E37800934201D1114B01E04FF040235A687B686A
:10E388001B680D498B4201D10C4B01E04FF0402333
:10E3980022F0A0025A607B685B8E9BB2002B06D1EC
:10E3A8007B68012283F841207868FFF781FF00BF6E
:10E3B8000837BD4680BD00BF00380040003400402B
:10E3C80080B582B000AF78607B681B68D8687B68CE
:10E3D800DB6A991C7A68D16282B21A807B685B8E8C
:10E3E8009BB2013B9AB27B685A867B685B8E9BB274
:10E3F800002B13D17B681B685A687B681B6822F066
:10E4080060025A607B685B8D9BB2002B06D17B68EB
:10E41800012283F841207868FFF74AFF00BF0837D8
:10E42800BD4680BD80B582B000AF78607B681B6850
:10E43800204A934201D1204B01E04FF04023D86895
:10E448007B68DB6A991C7A68D16282B21A807B6821
:10E458005B8E9BB2013B9AB27B685A867B685B8E67
:10E468009BB2002B21D17B681B68124A934201D1D1
:10E47800114B01E04FF040235A687B681B680D4937
:10E488008B4201D10C4B01E04FF0402322F0600297
:10E498005A607B685B8D9BB2002B06D17B6801229A
:10E4A80083F841207868FFF703FF00BF0837BD46AF
:10E4B80080BD00BF003800400034004080B586B001
:10E4C80000AF78607B68002B01D1012367E27B688D
:10E4D8001B6803F00103002B75D0884B9B6803F081
:10E4E8000C03042B0CD0854B9B6803F00C03082B02
:10E4F80012D1824B5B6803F48003B3F5800F0BD114
:10E508007E4B1B6803F40033002B5BD07B685B6891
:10E51800002B57D1012342E27B685B68B3F5803F4B
:10E5280006D1764B1B68754A43F4803313601DE0AF
:10E538007B685B68B3F5A02F0CD1704B1B686F4AE2
:10E5480043F4802313606D4B1B686C4A43F480339B
:10E5580013600BE0694B1B68684A23F4803313602F
:10E56800664B1B68654A23F4802313607B685B68ED
:10E57800002B13D0FEF778FE386108E0FEF774FE32
:10E5880002463B69D31A642B01D9032307E25B4B8C
:10E598001B6803F40033002BF0D014E0FEF764FE90
:10E5A800386108E0FEF760FE02463B69D31A642B27
:10E5B80001D90323F3E1514B1B6803F40033002B0B
:10E5C800F0D100E000BF7B681B6803F00203002B5A
:10E5D80063D04A4B9B6803F00C03002B0BD0474BCE
:10E5E8009B6803F00C03082B1CD1444B5B6803F4B5
:10E5F8008003002B16D1414B1B6803F00203002B4C
:10E6080005D07B68DB68012B01D00123C7E13B4BB8
:10E618001B6823F0F8027B681B69DB00374913434A
:10E628000B603AE07B68DB68002B20D0344B01227A
:10E638001A60FEF719FE386108E0FEF715FE02467B
:10E648003B69D31A022B01D90323A8E12B4B1B6882
:10E6580003F00203002BF0D0284B1B6823F0F802CC
:10E668007B681B69DB00254913430B6015E0244BCD
:10E6780000221A60FEF7F8FD386108E0FEF7F4FDA5
:10E6880002463B69D31A022B01D9032387E11B4BAE
:10E698001B6803F00203002BF0D17B681B6803F0B2
:10E6A8000803002B36D07B685B69002B16D0154B0E
:10E6B80001221A60FEF7D8FD386108E0FEF7D4FDA4
:10E6C80002463B69D31A022B01D9032367E10B4B9E
:10E6D8005B6F03F00203002BF0D01BE0094B002214
:10E6E8001A60FEF7C1FD38610EE0FEF7BDFD024677
:10E6F8003B69D31A022B07D9032350E100380240A3
:10E7080000004742800E4742884B5B6F03F00203CC
:10E71800002BEAD17B681B6803F00403002B00F090
:10E7280097800023FB75814B1B6C03F08053002BF3
:10E738000FD10023BB607D4B1B6C7C4A43F0805398
:10E7480013647A4B1B6C03F08053BB60BB680123D6
:10E75800FB75774B1B6803F48073002B18D1744B3F
:10E768001B68734A43F480731360FEF77DFD3861BC
:10E7780008E0FEF779FD02463B69D31A022B01D95E
:10E7880003230CE16A4B1B6803F48073002BF0D061
:10E798007B689B68012B06D1644B1B6F634A43F06F
:10E7A800010313671CE07B689B68052B0CD15F4B4A
:10E7B8001B6F5E4A43F0040313675C4B1B6F5B4A95
:10E7C80043F0010313670BE0584B1B6F574A23F0C4
:10E7D80001031367554B1B6F544A23F00403136757
:10E7E8007B689B68002B15D0FEF73EFD38610AE078
:10E7F800FEF73AFD02463B69D31A41F2883293424A
:10E8080001D90323CBE0494B1B6F03F00203002B14
:10E81800EED014E0FEF728FD38610AE0FEF724FD8B
:10E8280002463B69D31A41F28832934201D9032345
:10E83800B5E03E4B1B6F03F00203002BEED1FB7DCE
:10E84800012B05D1394B1B6C384A23F080531364D4
:10E858007B689B69002B00F0A180344B9B6803F018
:10E868000C03082B5CD07B689B69022B41D1314B90
:10E8780000221A60FEF7F8FC386108E0FEF7F4FCA5
:10E8880002463B69D31A022B01D9032387E0274BA1
:10E898001B6803F00073002BF0D17B68DA697B6892
:10E8A8001B6A1A437B685B6A9B011A437B689B6AF5
:10E8B8005B08013B1B041A437B68DB6A1B061B4988
:10E8C80013434B601B4B01221A60FEF7CDFC3861E5
:10E8D80008E0FEF7C9FC02463B69D31A022B01D9AE
:10E8E80003235CE0114B1B6803F00073002BF0D08E
:10E8F80054E0104B00221A60FEF7B6FC386108E0BD
:10E90800FEF7B2FC02463B69D31A022B01D9032356
:10E9180045E0064B1B6803F00073002BF0D13DE087
:10E928007B689B69012B07D1012338E0003802403E
:10E9380000700040600047421B4B5B68FB607B68CF
:10E948009B69012B28D0FB6803F480027B68DB6994
:10E958009A4221D1FB6803F03F027B681B6A9A4206
:10E968001AD1FA6847F6C07313407A68526A92015E
:10E97800934211D1FB6803F440327B689B6A5B08C1
:10E98800013B1B049A4207D1FB6803F070627B6865
:10E99800DB6A1B069A4201D0012300E000231846D7
:10E9A8001837BD4680BD00BF0038024080B584B02E
:10E9B80000AF786039607B68002B01D10123CCE07F
:10E9C800684B1B6803F007033A689A420CD9654BF9
:10E9D8003A68D2B21A70634B1B6803F007033A68AF
:10E9E8009A4201D00123B8E07B681B6803F0020358
:10E9F800002B20D07B681B6803F00403002B05D094
:10EA0800594B9B68584A43F4E05393607B681B68F2
:10EA180003F00803002B05D0534B9B68524A43F47C
:10EA280060439360504B9B6823F0F0027B689B68BF
:10EA38004D4913438B607B681B6803F00103002B6F
:10EA480044D07B685B68012B07D1474B1B6803F4F4
:10EA58000033002B19D101237FE07B685B68022B10
:10EA680003D07B685B68032B07D13F4B1B6803F01F
:10EA78000073002B09D101236FE03B4B1B6803F0A7
:10EA88000203002B01D1012367E0374B9B6823F079
:10EA980003027B685B68344913438B60FEF7E4FB31
:10EAA800F8600AE0FEF7E0FB0246FB68D31A41F281
:10EAB8008832934201D903234FE02B4B9B6803F024
:10EAC8000C027B685B689B009A42EBD1254B1B6864
:10EAD80003F007033A689A420CD2224B3A68D2B242
:10EAE8001A70204B1B6803F007033A689A4201D05A
:10EAF800012332E07B681B6803F00403002B08D075
:10EB0800194B9B6823F4E0527B68DB681649134372
:10EB18008B607B681B6803F00803002B09D0124B3D
:10EB28009B6823F460427B681B69DB000E49134332
:10EB38008B6000F021F802460B4B9B681B0903F021
:10EB48000F030A49CB5C22FA03F3094A1360094B05
:10EB58001B681846FEF744FB002318461037BD46CD
:10EB680080BD00BF003C024000380240700401082C
:10EB780000000020040000202DE9B04F94B000AF41
:10EB880000237B640023FB6400233B640023BB64F5
:10EB9800794B9B6803F00C03082B0DD0082B00F26F
:10EBA800E180002B02D0042B03D0DBE0734BBB6465
:10EBB800DBE0734BBB64D8E06F4B5B6803F03F034B
:10EBC8007B646D4B5B6803F48003002B63D06A4B56
:10EBD8005B689B090022BB63FA63BB6BC3F3080342
:10EBE8003B6300237B63D7E90C4522462B464FF055
:10EBF80000004FF00001590141EAD261500102467C
:10EC08000B462146511A3961294663EB01037B61A2
:10EC18004FF000024FF00003D7E904AB59468B01CF
:10EC2800514643EA916351468A015146B2EB0108C5
:10EC3800594663EB01094FF000024FF000034FEA19
:10EC4800C90343EA58734FEAC802904699462346D7
:10EC580018EB0303BB602B4649EB0303FB604FF043
:10EC680000024FF00003D7E9024529464B0221462E
:10EC780043EAD15321464A02104619467B6C0022CA
:10EC8800BB62FA62D7E90A23FDF71AFB02460B4674
:10EC98001346FB6458E0384B5B689B090022184612
:10ECA8001146C0F308033B6200237B62D7E9088959
:10ECB80042464B464FF000004FF00001590141EA2F
:10ECC800D261500102460B464146B2EB010A494661
:10ECD80063EB010B4FF000024FF000034FEA8B1378
:10ECE80043EA9A634FEA8A12B2EB0A0463EB0B0514
:10ECF8004FF000024FF00003EB0043EA5473E200C8
:10ED080014461D464346E3183B604B4645EB030358
:10ED18007B604FF000024FF00003D7E90045294619
:10ED28008B02214643EA915321468A02104619462E
:10ED38007B6C0022BB61FA61D7E90623FDF7C0FAB4
:10ED480002460B461346FB640B4B5B681B0C03F037
:10ED5800030301335B003B64FA6C3B6CB2FBF3F3D7
:10ED6800BB6402E0054BBB6400BFBB6C1846503760
:10ED7800BD46BDE8B08F00BF003802400024F40053
:10ED880000127A0080B400AF034B1B681846BD46DA
:10ED98005DF8047B704700BF0000002080B500AF1D
:10EDA800FFF7F0FF0246054B9B689B0A03F0070339
:10EDB8000349CB5C22FA03F3184680BD00380240B1
:10EDC8008004010880B500AFFFF7DCFF0246054B61
:10EDD8009B685B0B03F007030349CB5C22FA03F340
:10EDE800184680BD003802408004010880B586B00E
:10EDF80000AF786000237B6100233B617B681B6860
:10EE080003F00103002B05D17B681B6803F00403A2
:10EE1800002B35D0624B00221A60FEF725FA786184
:10EE280008E0FEF721FA02467B69D31A022B01D9C2
:10EE38000323B0E05B4B1B6803F00063002BF0D1A9
:10EE48007B685B689A017B689B681B07554913437D
:10EE5800C1F88430524B01221A60FEF705FA786136
:10EE680008E0FEF701FA02467B69D31A022B01D9A2
:10EE7800032390E04B4B1B6803F00063002BF0D09A
:10EE88007B681B6803F00203002B00F083800023DB
:10EE9800FB60444B1B6C434A43F080531364414B63
:10EEA8001B6C03F08053FB60FB683F4B1B683E4ABA
:10EEB80043F480731360FEF7D7F9786108E0FEF732
:10EEC800D3F902467B69D31A022B01D9032362E0E6
:10EED800354B1B6803F48073002BF0D0314B1B6F4C
:10EEE80003F440733B613B69002B2FD07B68DB68E0
:10EEF80003F440733A699A4228D02A4B1B6F23F4D3
:10EF080040733B61294B01221A60284B00221A608A
:10EF1800244A3B691367234B1B6F03F00103012B42
:10EF280014D1FEF7A1F978610AE0FEF79DF90246CF
:10EF38007B69D31A41F28832934201D903232AE02C
:10EF4800184B1B6F03F00203002BEED07B68DB68C5
:10EF580003F44073B3F5407F0DD1124B9B6823F443
:10EF6800F8127B68DB6823F0704323F440730D4983
:10EF780013438B6005E00B4B9B680A4A23F4F81394
:10EF88009360084B1A6F7B68DB68C3F30B03054972
:10EF980013430B67002318461837BD4680BD00BFD2
:10EFA800680047420038024000700040400E474267
:10EFB80080B487B000AF786000237B6100233B6199
:10EFC8000023FB600023BB607B68012B3FD1244BEF
:10EFD8009B6803F40003FB60FB68002B06D0FB680A
:10EFE800B3F5000F2FD11F4B7B612FE01C4B5B68E3
:10EFF80003F48003B3F5800F08D1194B5B6803F065
:10F008003F03194AB2FBF3F33B6107E0144B5B681B
:10F0180003F03F03154AB2FBF3F33B61104BD3F8FF
:10F0280084309B09C3F308023B6902FB03F3BB600E
:10F038000B4BD3F884301B0F03F00703BA68B2FBFD
:10F04800F3F37B6102E000237B6100BF00E000BFB7
:10F058007B6918461C37BD465DF8047B704700BFC6
:10F06800003802400080BB0000127A000024F4003F
:10F0780080B582B000AF78607B68002B01D1012396
:10F088001CE07B685B79DBB2002B05D17B68002232
:10F098001A717868FDF710FE7B6802225A717B6846
:10F0A8001B681A687B681B6842F004021A607B6858
:10F0B80001225A717B6800229A600023184608379B
:10F0C800BD4680BD80B584B000AF78600023FB608A
:10F0D8007B681B685B68BB60BB6803F02003002B80
:10F0E80005D07B6810229A600123FB6009E0BB68A9
:10F0F80003F04003002B04D07B6808229A600123A8
:10F10800FB60FB68012B0BD17B6804225A7178687D
:10F1180000F037F87B681B686FF060025A6022E0E5
:10F12800BB6803F00103002B1DD07B681B681A68BD
:10F138007B681B6822F008021A607B681B689A6863
:10F148007B68DA607B685B79DBB2042B0BD07B6869
:10F1580001225A717B6800221A717B68DB681946A4
:10F16800786800F003F81037BD4680BD80B483B0DE
:10F1780000AF7860396000BF0C37BD465DF8047B8E
:10F18800704780B483B000AF786000BF0C37BD46CD
:10F198005DF8047B704780B582B000AF78607B680B
:10F1A800002B01D101237BE07B685B6A002B08D12F
:10F1B8007B685B68B3F5827F09D07B680022DA61DF
:10F1C80005E07B6800221A617B6800225A617B682F
:10F1D80000229A627B6893F85130DBB2002B06D18B
:10F1E8007B68002283F850207868FDF7C3FD7B68B0
:10F1F800022283F851207B681B681A687B681B68A9
:10F2080022F040021A607B685B6803F482727B68B4
:10F218009B6803F404431A437B68DB6803F40063C8
:10F228001A437B681B6903F002031A437B685B6916
:10F2380003F001031A437B689B6903F400731A43C4
:10F248007B68DB6903F038031A437B681B6A03F0A9
:10F25800800342EA03017B689B6A03F400527B68DF
:10F268001B680A431A607B689B691B0C03F0040146
:10F278007B685B6A03F010027B681B680A435A606C
:10F288007B681B68DA697B681B6822F40062DA61B4
:10F298007B6800225A657B68012283F8512000238D
:10F2A80018460837BD4680BD80B582B000AF78608B
:10F2B8007B68002B01D1012342E07B6893F8413041
:10F2C800DBB2002B06D17B68002283F840207868E7
:10F2D800FDF7F2FE7B68242283F841207B681B68D7
:10F2E800DA687B681B6822F40052DA60786800F0FC
:10F2F80073F97B681B681A697B681B6822F4904263
:10F308001A617B681B685A697B681B6822F02A02AD
:10F318005A617B681B68DA687B681B6842F4005294
:10F32800DA607B6800225A647B68202283F84120D7
:10F338007B68202283F842207B6800225A630023DE
:10F3480018460837BD4680BD80B58AB002AFF86060
:10F35800B9603B601346FB8000237B61FB6893F830
:10F368004130DBB2202B75D1BB68002B02D0FB8863
:10F37800002B01D101236EE0FB6800225A64FB6870
:10F38800212283F84120FDF76FFF7861FB68FA8836
:10F398009A84FB68FA88DA84FB689B68B3F5805F17
:10F3A80008D1FB681B69002B04D10023FB61BB68F3
:10F3B800BB6103E0BB68FB610023BB612EE03B68D7
:10F3C80000937B6900228021F86800F048F8034622
:10F3D800002B05D0FB68202283F8412003233AE064
:10F3E800FB69002B0BD1BB691B881A46FB681B689D
:10F3F800C2F308025A60BB690233BB6107E0FB69CC
:10F408001A78FB681B685A60FB690133FB61FB686B
:10F41800DB8C9BB2013B9AB2FB68DA84FB68DB8C1D
:10F428009BB2002BCBD13B6800937B690022402123
:10F43800F86800F014F80346002B05D0FB6820227A
:10F4480083F84120032306E0FB68202283F841204B
:10F45800002300E0022318462037BD4680BD80B552
:10F4680086B000AFF860B9603B601346FB713BE0C3
:10F478003B6AB3F1FF3F37D0FDF7F6FE02463B6823
:10F48800D31A3A6A9A4202D33B6A002B01D103236A
:10F498003AE0FB681B68DB6803F00403002B23D009
:10F4A800BB68802B20D0BB68402B1DD0FB681B6835
:10F4B8001B6803F00803082B16D100237B61FB6847
:10F4C8001B681B687B61FB681B685B687B617B69E9
:10F4D800F86800F01DF8FB6808225A64FB680022EF
:10F4E80083F8402001230FE0FB681B681A68BB689B
:10F4F8001340BA689A420CBF01230023DBB21A46B4
:10F50800FB799A42B4D0002318461837BD4680BD0F
:10F5180080B495B000AF78607B681B680C337B6360
:10F528007B6B53E8003F3B633B6B23F49073FB64B6
:10F538007B681B680C33FA6C3A64FB63F96B3A6CB2
:10F5480041E80023BB63BB6B002BE5D17B681B68DC
:10F5580014333B623B6A53E8003FFB61FB6923F0CD
:10F568000103BB647B681B681433BA6CFA62BB6224
:10F57800B96AFA6A41E800237B627B6A002BE5D10D
:10F588007B681B6B012B19D17B681B680C33FB60F4
:10F59800FB6853E8003FBB60BB6823F010037B6443
:10F5A8007B681B680C337A6CBA617B617969BA69CC
:10F5B80041E800233B613B69002BE5D17B682022B1
:10F5C80083F842207B6800221A6300BF5437BD4687
:10F5D8005DF8047B704700002DE9B04FC0B000AF64
:10F5E800C7F8F400D7F8F4301B681B6923F44050BF
:10F5F800D7F8F430D968D7F8F4301A6840EA01032C
:10F608001361D7F8F4309A68D7F8F4301B691A43B5
:10F61800D7F8F4305B691A43D7F8F430DB69134341
:10F62800C7F8F830D7F8F4301B68DB6823F41641C4
:10F6380021F00C01D7F8F4301A68D7F8F8300B43EA
:10F64800D360D7F8F4301B685B6923F44070D7F8AF
:10F65800F4309969D7F8F4301A6840EA0103536125
:10F66800D7F8F4301A688F4B9A4205D0D7F8F4309F
:10F678001A688D4B9A4204D1FFF7A4FBC7F8FC0027
:10F6880003E0FFF78BFBC7F8FC00D7F8F430DB6921
:10F69800B3F5004F40F00C81D7F8FC300022C7F8D2
:10F6A800E830C7F8EC20D7E93A4522462B469118AE
:10F6B800B9655B41FB65D7E91623214612EB0108C2
:10F6C800294643EB01094FF000024FF000034FEACF
:10F6D800C90343EA58734FEAC8029046994623463D
:10F6E80018EB0303C7F8E0302B4649EB0303C7F8D0
:10F6F800E430D7F8F4305B680022C7F8D830C7F890
:10F70800DC20D7E936120B46DB183B65134642EB83
:10F7180003037B65D7E91423D7E93801FCF7D0FD4B
:10F7280002460B46614BA3FB02235B091C01D7F879
:10F73800FC300022C7F8D030C7F8D420D7E9348984
:10F7480042464B469118B9645B41FB64D7E91223E2
:10F75800414612EB010A494643EB010B4FF0000208
:10F768004FF000034FEACB0343EA5A734FEACA0249
:10F7780092469B4643461AEB0303C7F8C8304B46EC
:10F788004BEB0303C7F8CC30D7F8F4305B680022A2
:10F79800C7F8C030C7F8C420D7E930120B46DB18C9
:10F7A8003B64134642EB03037B64D7E91023D7E994
:10F7B8003201FCF785FD02460B4611463B4BA3FB85
:10F7C80001235B09642202FB03F3CB1ADB0003F17C
:10F7D8003202364BA3FB02235B095B0003F4F87388
:10F7E8001C44D7F8FC300022C7F8B830C7F8BC2052
:10F7F800D7E92E8942464B469118B9635B41FB63B2
:10F80800D7E90E2341465118396349464B417B637A
:10F818004FF000024FF00003D7E90CAB5946CB007C
:10F82800514643EA51735146CA00104619460346E9
:10F8380042469B18C7F8B0304B460A4642EB0303D2
:10F84800C7F8B430D7F8F4305B680022C7F8A8309E
:10F85800C7F8AC20D7E92A120B46DB18BB6213465F
:10F8680042EB0303FB62D7E90A23D7E92C01FCF733
:10F8780027FD02460B460D4BA3FB02135B096421CF
:10F8880001FB03F3D31ADB003233084AA2FB03233C
:10F898005B0903F00702D7F8F4301B6822449A602A
:10F8A80006E100BF00100140001401401F85EB5124
:10F8B800D7F8FC300022C7F8A030C7F8A420D7E951
:10F8C800288942464B46911839625B417B62D7E9E9
:10F8D800082341465418494643EB01054FF00002FE
:10F8E8004FF00003EB0043EA5473E20014461D4650
:10F8F8004346E318C7F898304B4645EB0303C7F86F
:10F908009C30D7F8F4305B680022C7F89030C7F80D
:10F9180094204FF000024FF00003D7E92445294610
:10F928008B00214643EA917321468A00D7E92601D4
:10F93800FCF7C6FC02460B46604BA3FB02235B099F
:10F948001C01D7F8FC300022C7F88830C7F88C2093
:10F95800D7E9228942464B469118B9615B41FB6160
:10F96800D7E9062341465118396149464B417B6125
:10F978004FF000024FF00003D7E904AB5946CB0023
:10F98800514643EA51735146CA0010461946034688
:10F9980042469B18C7F880304B460A4642EB0303A1
:10F9A800C7F88430D7F8F4305B680022BB67FA6781
:10F9B8004FF000024FF00003D7E91E8949468B003B
:10F9C800414643EA917341468A00D7E92001FCF792
:10F9D80077FC02460B461146384BA3FB01235B0913
:10F9E800642202FB03F3CB1A1B013233334AA2FB16
:10F9F80003235B0903F0F0031C44D7F8FC30002212
:10FA08003B677A67D7E91C8942464B469118B9602B
:10FA18005B41FB60D7E902234146511839604946EA
:10FA28004B417B604FF000024FF00003D7E900AB79
:10FA38005946CB00514643EA51735146CA00104615
:10FA48001946034642469B18BB664B460A4642EB9C
:10FA58000303FB66D7F8F4305B6800223B667A66DE
:10FA68004FF000024FF00003D7E9188949468B0090
:10FA7800414643EA917341468A00D7E91A01FCF7E7
:10FA88001FFC02460B460D4BA3FB02135B096421C6
:10FA980001FB03F3D31A1B013233084AA2FB0323E9
:10FAA8005B0903F00F02D7F8F4301B6822449A6010
:10FAB80000BF07F58077BD46BDE8B08F1F85EB51C5
:10FAC800002310B50446C0E90033C0E9043383605D
:10FAD80081814366C2818361194608225C3000F047
:10FAE800E7F90D4B63620D4BA3620D4BE3620D4BBF
:10FAF80023630D4B24629C4206D003F168029442B2
:10FB080002D0D0339C4205D104F15800BDE8104022
:10FB180000F046BA10BD00BF09FD00082BFD000823
:10FB280063FD000887FD0008E4010020024A03493C
:10FB3800034800F069B800BF0C000020A9020108C2
:10FB48001C00002041680C4B994210B5044601D0B6
:10FB580000F0A6FBA168094B994202D0204600F0AC
:10FB68009FFBE168064B994204D02046BDE810404F
:10FB780000F096BB10BD00BFE40100204C0200203D
:10FB8800B402002010B50B4B0B4C0C4A1A602046EF
:10FB980000220421FFF794FF04F1680001220921E3
:10FBA800FFF78EFF04F1D0000222BDE810401221B9
:10FBB800FFF786BF1C030020E401002035FB000886
:10FBC800014800F0EEB900BF25030020014800F00D
:10FBD800E9B900BF2503002010B50446FFF7F0FF80
:10FBE800236A1BB1BDE81040FFF7F0BF044B236246
:10FBF800044B1B68002BF5D1FFF7C4FFF2E700BFE9
:10FC08004DFB00081C0300202DE9F84307468846F1
:10FC180014460026D4E90195B9F1010905D52468EF
:10FC2800002CF7D13046BDE8F883AB89012B07D902
:10FC3800B5F90E30013303D029463846C04706438C
:10FC48006835E9E7036A70B5846805460E460BB95E
:10FC5800FFF7C2FF636EDB0705D4A389980502D4BA
:10FC6800A06D00F09EF9A389190702D52369002B1E
:10FC780035D12146284600F0C5F880B34FF0FF354E
:10FC8800636EDA0705D4A3899B0502D4A06D00F042
:10FC980089F9284670BD002B04DAA2699A4217DC5C
:10FCA8000A2915D023685A1C22601970A36816F80F
:10FCB800011F013BA3600029EDD1002B11DA224678
:10FCC8000A21284600F05FF80130D7D00A25D7E787
:10FCD8002246284600F057F80130E7D1CEE7013E2A
:10FCE800E4E723685A1C22600A221A70EEE7000033
:10FCF800024B01461868FFF7A5BF00BF1800002097
:10FD080010B50C46B1F90E1000F0FCF80028ABBF96
:10FD1800636DA3891B1823F48053ACBF6365A3816B
:10FD280010BD2DE9F0411F468B89DB0505460C46C1
:10FD3800164605D5B1F90E100223002200F0D0F8BE
:10FD4800A389B4F90E1023F48053A38132463B46AD
:10FD58002846BDE8F04100F0E7B810B50C46B1F907
:10FD68000E1000F0BDF8431CA38915BF606523F48D
:10FD7800805343F48053A38118BFA38110BDB1F908
:10FD88000E1000F09DB8F8B50E461446054618B199
:10FD9800036A0BB9FFF720FFA369A360A3891A07B9
:10FDA80001D5236943B92146284600F02BF818B13C
:10FDB8004FF0FF373846F8BD23682269981A6369FF
:10FDC800F6B28342374605DC2146284600F068FA39
:10FDD8000028EDD1A368013BA36023685A1C226068
:10FDE8001E706269431C9A4204D0A389DB07E1D5DF
:10FDF8000A2EDFD12146284600F052FA0028D9D031
:10FE0800D6E7000038B5294B054618680C4618B1E6
:10FE1800036A0BB9FFF7E0FEB4F90C30190722D4D6
:10FE2800DA0607D409222A6043F04003A3814FF081
:10FE3800FF3033E0580712D5616B41B104F1440338
:10FE4800994202D0284600F0AFF800236363A389E3
:10FE580023F02403A3810023636023692360A3891B
:10FE680043F00803A38123694BB9A38903F42073E2
:10FE7800B3F5007F03D02146284600F05FFAB4F9B5
:10FE88000C3013F001020AD00022A26062695242CB
:10FE9800A261226942B913F08000C5D138BD990723
:10FEA80058BF6269A260F4E70020F7E71800002055
:10FEB80002440346934200D1704703F8011BF9E757
:10FEC80038B5064D0023044608462B60FDF74DF86B
:10FED800431C02D12B6803B1236038BD20030020E6
:10FEE80038B5074D04460846114600222A601A46CE
:10FEF800FDF762F8431C02D12B6803B1236038BDBB
:10FF08002003002038B5074D044608461146002254
:10FF18002A601A46FCF7F0FF431C02D12B6803B194
:10FF2800236038BD2003002038B5074D0446084635
:10FF3800114600222A601A46FCF7FBFF431C02D137
:10FF48002B6803B1236038BD20030020014B1868DB
:10FF5800704700BF1800002070B50D4D0D4C641B94
:10FF6800A4100026A64209D10B4D0C4C00F054FAFF
:10FF7800641BA4100026A64205D170BD55F8043BA9
:10FF880098470136EEE755F8043B98470136F2E703
:10FF980090040108900401089004010894040108E1
:10FFA800704770477047000038B50546002941D0B2
:10FFB80051F8043C0C1F002BB8BFE41800F0E0F81F
:10FFC8001D4A136833B9636014602846BDE8384099
:10FFD80000F0DCB8A34208D9206821188B4201BF81
:10FFE80019685B6809182160EDE71A465B680BB170
:08FFF800A342FAD91168501868
:020000040801F1
:10000000A0420BD120680144501883421160E0D116
:1000100018685B68536008441060DAE702D90C2363
:100020002B60D6E7206821188B4204BF19685B68F3
:10003000636004BF091821605460CAE738BD00BF7F
:100040002C03002070B50F4E0C463168054611B9DF
:1000500000F0D6F930602146284600F0D1F9431C63
:1000600003D14FF0FF34204670BDC41C24F00304BC
:10007000A042F8D0211A284600F0C2F90130F2D18E
:10008000EFE700BF280300202DE9F843CD1C25F041
:10009000030508350C2D38BF0C25002D064601DB65
:1000A000A94204D90C2333600020BDE8F883DFF8AF
:1000B000D48000F069F8D8F800301C4644BB2946CB
:1000C0003046FFF7BFFF431C044658D1D8F8004024
:1000D0002746002F43D1002C4BD0236839463046A9
:1000E00004EB030900F08CF9814542D121686D1AB7
:1000F00029463046FFF7A6FF01303AD023682B444B
:100100002360D8F800305A6862BBC8F800700FE06E
:100110002268521B20D40B2A17D96119A3422560EB
:1001200018BF5960636808BFC8F8001062514B607F
:10013000304600F02FF804F10B00231D20F00700DB
:10014000C21A1CBF1B1AA350AFE76268A3420CBFC0
:10015000C8F800205A60EBE723466468AEE73C46E7
:100160007F68B6E71A465B68A342FBD10023536061
:10017000DEE70C233360304600F00CF894E70560AE
:10018000D6E700BF2C0300200148FFF70EBF00BFD9
:10019000240300200148FFF709BF00BF240300200B
:1001A000B1F90C202DE9F041160705460C4654D450
:1001B0004B68002B02DC0B6C002B48DDE66A002E3E
:1001C00045D0002312F480522F68216A2B6030D072
:1001D000626DA389590705D56368D21A636B0BB1A9
:1001E000236CD21A0023E66A216A2846B047431CD2
:1001F000A38906D129681D292BD82A4ACA40D607C7
:1002000027D500226260D9042269226004D5421CED
:1002100001D12B6803B96065616B2F60B9B104F13E
:100220004403994202D02846FFF7C2FE00236363CD
:100230000DE001232846B0470246501CC9D12B6867
:10024000002BC6D01D2B01D0162B1ED12F600020F5
:1002500022E043F040031BB21BE00F69002FF6D0F1
:1002600093070E6808BF4B690F6018BF0023A6EB09
:1002700007088B60B8F1000FE9DD216AA66A4346E2
:100280003A462846B047002808DCB4F90C3043F061
:100290004003A3814FF0FF30BDE8F0810744A8EB95
:1002A0000008E7E70100402038B50B6905460C4619
:1002B00013B90025284638BD18B1036A0BB9FFF7FA
:1002C0008FFCB4F90C30002BF3D0626ED00704D44D
:1002D000990502D4A06DFFF768FE28462146FFF776
:1002E0005FFF636EDA070546E4D4A3899B05E1D47A
:1002F000A06DFFF75BFEDDE770B50C46B1F90E109F
:10030000002996B015461E460DDAA38913F0800F1A
:100310004FF0000114BF40234FF480630020316090
:100320002B6016B070BD6A4600F048F80028ECDB80
:10033000019901F47041A1F50053594259414FF41C
:100340008063EBE78B89F7B59D0706460C4607D51A
:1003500004F14703236023610123636103B0F0BD0F
:1003600001AB6A46FFF7C8FF009F05463946304695
:10037000FFF78AFE48B9B4F90C309A05EED423F0A1
:10038000030343F00203A381E2E7A389206043F063
:100390008003A381019BC4E904075BB1B4F90E108B
:1003A000304600F01DF828B1A38923F0030343F081
:1003B0000103A381A3891D43A581CFE738B5074D6C
:1003C00000230446084611462B60FCF7DEFD431C63
:1003D00002D12B6803B1236038BD00BF2003002089
:1003E00038B5064D0023044608462B60FCF7DDFDBA
:1003F000431C02D12B6803B1236038BD20030020C9
:1004000038B5064D0023044608462B60FCF7E6FD90
:10041000431C02D12B6803B1236038BD20030020A8
:10042000F8B500BFF8BC08BC9E467047F8B500BFE1
:08043000F8BC08BC9E467047B1
:1004380052756E6E696E67204170706C6963617485
:10044800696F6E204D61696E6C6F6F70200D0000D2
:1004580049737375696E672073797374656D20725B
:1004680065736574200D00000000000000000000A6
:100478000102030406070809000000000102030442
:0804880070BEFF7F01000000BF
:04049000ADC20008F1
:0404940089C2000811
:100498000024F4001000000001000000000000002B
:1004A80003000000E40100201C0000200000000000
:1004B800E40100204C020020B402002000000000EB
:1004C8000000000000000000000000000000000024
:1004D8000000000000000000000000000000000014
:1004E8000000000000000000000000000000000004
:0804F8000000000000000000FC
:02000004080FE3
:040000050800D151CD
:00000001FF
